{
  "contractName": "RAFOceneNFT",
  "abi": [
    {
      "inputs": [],
      "stateMutability": "nonpayable",
      "type": "constructor"
    },
    {
      "anonymous": false,
      "inputs": [
        {
          "indexed": true,
          "internalType": "address",
          "name": "owner",
          "type": "address"
        },
        {
          "indexed": true,
          "internalType": "address",
          "name": "approved",
          "type": "address"
        },
        {
          "indexed": true,
          "internalType": "uint256",
          "name": "tokenId",
          "type": "uint256"
        }
      ],
      "name": "Approval",
      "type": "event"
    },
    {
      "anonymous": false,
      "inputs": [
        {
          "indexed": true,
          "internalType": "address",
          "name": "owner",
          "type": "address"
        },
        {
          "indexed": true,
          "internalType": "address",
          "name": "operator",
          "type": "address"
        },
        {
          "indexed": false,
          "internalType": "bool",
          "name": "approved",
          "type": "bool"
        }
      ],
      "name": "ApprovalForAll",
      "type": "event"
    },
    {
      "anonymous": false,
      "inputs": [
        {
          "indexed": true,
          "internalType": "address",
          "name": "previousOwner",
          "type": "address"
        },
        {
          "indexed": true,
          "internalType": "address",
          "name": "newOwner",
          "type": "address"
        }
      ],
      "name": "OwnershipTransferred",
      "type": "event"
    },
    {
      "anonymous": false,
      "inputs": [
        {
          "indexed": true,
          "internalType": "address",
          "name": "from",
          "type": "address"
        },
        {
          "indexed": true,
          "internalType": "address",
          "name": "to",
          "type": "address"
        },
        {
          "indexed": true,
          "internalType": "uint256",
          "name": "tokenId",
          "type": "uint256"
        }
      ],
      "name": "Transfer",
      "type": "event"
    },
    {
      "inputs": [
        {
          "internalType": "address",
          "name": "to",
          "type": "address"
        },
        {
          "internalType": "uint256",
          "name": "tokenId",
          "type": "uint256"
        }
      ],
      "name": "approve",
      "outputs": [],
      "stateMutability": "nonpayable",
      "type": "function"
    },
    {
      "inputs": [
        {
          "internalType": "address",
          "name": "",
          "type": "address"
        }
      ],
      "name": "authorized",
      "outputs": [
        {
          "internalType": "bool",
          "name": "",
          "type": "bool"
        }
      ],
      "stateMutability": "view",
      "type": "function",
      "constant": true
    },
    {
      "inputs": [
        {
          "internalType": "address",
          "name": "owner",
          "type": "address"
        }
      ],
      "name": "balanceOf",
      "outputs": [
        {
          "internalType": "uint256",
          "name": "",
          "type": "uint256"
        }
      ],
      "stateMutability": "view",
      "type": "function",
      "constant": true
    },
    {
      "inputs": [
        {
          "internalType": "uint256",
          "name": "tokenId",
          "type": "uint256"
        }
      ],
      "name": "getApproved",
      "outputs": [
        {
          "internalType": "address",
          "name": "",
          "type": "address"
        }
      ],
      "stateMutability": "view",
      "type": "function",
      "constant": true
    },
    {
      "inputs": [
        {
          "internalType": "address",
          "name": "owner",
          "type": "address"
        },
        {
          "internalType": "address",
          "name": "operator",
          "type": "address"
        }
      ],
      "name": "isApprovedForAll",
      "outputs": [
        {
          "internalType": "bool",
          "name": "",
          "type": "bool"
        }
      ],
      "stateMutability": "view",
      "type": "function",
      "constant": true
    },
    {
      "inputs": [],
      "name": "name",
      "outputs": [
        {
          "internalType": "string",
          "name": "",
          "type": "string"
        }
      ],
      "stateMutability": "view",
      "type": "function",
      "constant": true
    },
    {
      "inputs": [],
      "name": "owner",
      "outputs": [
        {
          "internalType": "address",
          "name": "",
          "type": "address"
        }
      ],
      "stateMutability": "view",
      "type": "function",
      "constant": true
    },
    {
      "inputs": [
        {
          "internalType": "uint256",
          "name": "tokenId",
          "type": "uint256"
        }
      ],
      "name": "ownerOf",
      "outputs": [
        {
          "internalType": "address",
          "name": "",
          "type": "address"
        }
      ],
      "stateMutability": "view",
      "type": "function",
      "constant": true
    },
    {
      "inputs": [],
      "name": "renounceOwnership",
      "outputs": [],
      "stateMutability": "nonpayable",
      "type": "function"
    },
    {
      "inputs": [
        {
          "internalType": "address",
          "name": "from",
          "type": "address"
        },
        {
          "internalType": "address",
          "name": "to",
          "type": "address"
        },
        {
          "internalType": "uint256",
          "name": "tokenId",
          "type": "uint256"
        }
      ],
      "name": "safeTransferFrom",
      "outputs": [],
      "stateMutability": "nonpayable",
      "type": "function"
    },
    {
      "inputs": [
        {
          "internalType": "address",
          "name": "from",
          "type": "address"
        },
        {
          "internalType": "address",
          "name": "to",
          "type": "address"
        },
        {
          "internalType": "uint256",
          "name": "tokenId",
          "type": "uint256"
        },
        {
          "internalType": "bytes",
          "name": "_data",
          "type": "bytes"
        }
      ],
      "name": "safeTransferFrom",
      "outputs": [],
      "stateMutability": "nonpayable",
      "type": "function"
    },
    {
      "inputs": [
        {
          "internalType": "address",
          "name": "operator",
          "type": "address"
        },
        {
          "internalType": "bool",
          "name": "approved",
          "type": "bool"
        }
      ],
      "name": "setApprovalForAll",
      "outputs": [],
      "stateMutability": "nonpayable",
      "type": "function"
    },
    {
      "inputs": [
        {
          "internalType": "bytes4",
          "name": "interfaceId",
          "type": "bytes4"
        }
      ],
      "name": "supportsInterface",
      "outputs": [
        {
          "internalType": "bool",
          "name": "",
          "type": "bool"
        }
      ],
      "stateMutability": "view",
      "type": "function",
      "constant": true
    },
    {
      "inputs": [],
      "name": "symbol",
      "outputs": [
        {
          "internalType": "string",
          "name": "",
          "type": "string"
        }
      ],
      "stateMutability": "view",
      "type": "function",
      "constant": true
    },
    {
      "inputs": [
        {
          "internalType": "uint256",
          "name": "tokenId",
          "type": "uint256"
        }
      ],
      "name": "tokenURI",
      "outputs": [
        {
          "internalType": "string",
          "name": "",
          "type": "string"
        }
      ],
      "stateMutability": "view",
      "type": "function",
      "constant": true
    },
    {
      "inputs": [
        {
          "internalType": "address",
          "name": "from",
          "type": "address"
        },
        {
          "internalType": "address",
          "name": "to",
          "type": "address"
        },
        {
          "internalType": "uint256",
          "name": "tokenId",
          "type": "uint256"
        }
      ],
      "name": "transferFrom",
      "outputs": [],
      "stateMutability": "nonpayable",
      "type": "function"
    },
    {
      "inputs": [
        {
          "internalType": "address",
          "name": "newOwner",
          "type": "address"
        }
      ],
      "name": "transferOwnership",
      "outputs": [],
      "stateMutability": "nonpayable",
      "type": "function"
    },
    {
      "inputs": [
        {
          "internalType": "address",
          "name": "_addr",
          "type": "address"
        }
      ],
      "name": "authorize",
      "outputs": [],
      "stateMutability": "nonpayable",
      "type": "function"
    },
    {
      "inputs": [
        {
          "internalType": "address",
          "name": "to",
          "type": "address"
        },
        {
          "internalType": "string",
          "name": "uri",
          "type": "string"
        }
      ],
      "name": "mint",
      "outputs": [],
      "stateMutability": "nonpayable",
      "type": "function"
    }
  ],
  "bytecode": "0x60806040523480156200001157600080fd5b506040518060400160405280600981526020017f524146204f63656e6500000000000000000000000000000000000000000000008152506040518060400160405280600481526020017f5241464f00000000000000000000000000000000000000000000000000000000815250816000908051906020019062000096929190620001a6565b508060019080519060200190620000af929190620001a6565b505050620000d2620000c6620000d860201b60201c565b620000e060201b60201c565b620002ba565b600033905090565b6000600760009054906101000a900473ffffffffffffffffffffffffffffffffffffffff16905081600760006101000a81548173ffffffffffffffffffffffffffffffffffffffff021916908373ffffffffffffffffffffffffffffffffffffffff1602179055508173ffffffffffffffffffffffffffffffffffffffff168173ffffffffffffffffffffffffffffffffffffffff167f8be0079c531659141344cd1fd0a4f28419497f9722a3daafe3b4186f6b6457e060405160405180910390a35050565b828054620001b49062000285565b90600052602060002090601f016020900481019282620001d8576000855562000224565b82601f10620001f357805160ff191683800117855562000224565b8280016001018555821562000224579182015b828111156200022357825182559160200191906001019062000206565b5b50905062000233919062000237565b5090565b5b808211156200025257600081600090555060010162000238565b5090565b7f4e487b7100000000000000000000000000000000000000000000000000000000600052602260045260246000fd5b600060028204905060018216806200029e57607f821691505b602082108103620002b457620002b362000256565b5b50919050565b61331580620002ca6000396000f3fe608060405234801561001057600080fd5b50600436106101215760003560e01c80638da5cb5b116100ad578063b918161111610071578063b9181611146102f2578063c87b56dd14610322578063d0def52114610352578063e985e9c51461036e578063f2fde38b1461039e57610121565b80638da5cb5b1461026257806395d89b4114610280578063a22cb4651461029e578063b6a5d7de146102ba578063b88d4fde146102d657610121565b806323b872dd116100f457806323b872dd146101c057806342842e0e146101dc5780636352211e146101f857806370a0823114610228578063715018a61461025857610121565b806301ffc9a71461012657806306fdde0314610156578063081812fc14610174578063095ea7b3146101a4575b600080fd5b610140600480360381019061013b9190611e57565b6103ba565b60405161014d9190611e9f565b60405180910390f35b61015e61049c565b60405161016b9190611f53565b60405180910390f35b61018e60048036038101906101899190611fab565b61052e565b60405161019b9190612019565b60405180910390f35b6101be60048036038101906101b99190612060565b6105b3565b005b6101da60048036038101906101d591906120a0565b6106ca565b005b6101f660048036038101906101f191906120a0565b61072a565b005b610212600480360381019061020d9190611fab565b61074a565b60405161021f9190612019565b60405180910390f35b610242600480360381019061023d91906120f3565b6107fb565b60405161024f919061212f565b60405180910390f35b6102606108b2565b005b61026a61093a565b6040516102779190612019565b60405180910390f35b610288610964565b6040516102959190611f53565b60405180910390f35b6102b860048036038101906102b39190612176565b6109f6565b005b6102d460048036038101906102cf91906120f3565b610a0c565b005b6102f060048036038101906102eb91906122eb565b610b70565b005b61030c600480360381019061030791906120f3565b610bd2565b6040516103199190611e9f565b60405180910390f35b61033c60048036038101906103379190611fab565b610bf2565b6040516103499190611f53565b60405180910390f35b61036c6004803603810190610367919061240f565b610d43565b005b6103886004803603810190610383919061246b565b610e03565b6040516103959190611e9f565b60405180910390f35b6103b860048036038101906103b391906120f3565b610e97565b005b60007f80ac58cd000000000000000000000000000000000000000000000000000000007bffffffffffffffffffffffffffffffffffffffffffffffffffffffff1916827bffffffffffffffffffffffffffffffffffffffffffffffffffffffff1916148061048557507f5b5e139f000000000000000000000000000000000000000000000000000000007bffffffffffffffffffffffffffffffffffffffffffffffffffffffff1916827bffffffffffffffffffffffffffffffffffffffffffffffffffffffff1916145b80610495575061049482610f8e565b5b9050919050565b6060600080546104ab906124da565b80601f01602080910402602001604051908101604052809291908181526020018280546104d7906124da565b80156105245780601f106104f957610100808354040283529160200191610524565b820191906000526020600020905b81548152906001019060200180831161050757829003601f168201915b5050505050905090565b600061053982610ff8565b610578576040517f08c379a000000000000000000000000000000000000000000000000000000000815260040161056f9061257d565b60405180910390fd5b6004600083815260200190815260200160002060009054906101000a900473ffffffffffffffffffffffffffffffffffffffff169050919050565b60006105be8261074a565b90508073ffffffffffffffffffffffffffffffffffffffff168373ffffffffffffffffffffffffffffffffffffffff160361062e576040517f08c379a00000000000000000000000000000000000000000000000000000000081526004016106259061260f565b60405180910390fd5b8073ffffffffffffffffffffffffffffffffffffffff1661064d611064565b73ffffffffffffffffffffffffffffffffffffffff16148061067c575061067b81610676611064565b610e03565b5b6106bb576040517f08c379a00000000000000000000000000000000000000000000000000000000081526004016106b2906126a1565b60405180910390fd5b6106c5838361106c565b505050565b6106db6106d5611064565b82611125565b61071a576040517f08c379a000000000000000000000000000000000000000000000000000000000815260040161071190612733565b60405180910390fd5b610725838383611203565b505050565b61074583838360405180602001604052806000815250610b70565b505050565b6000806002600084815260200190815260200160002060009054906101000a900473ffffffffffffffffffffffffffffffffffffffff169050600073ffffffffffffffffffffffffffffffffffffffff168173ffffffffffffffffffffffffffffffffffffffff16036107f2576040517f08c379a00000000000000000000000000000000000000000000000000000000081526004016107e9906127c5565b60405180910390fd5b80915050919050565b60008073ffffffffffffffffffffffffffffffffffffffff168273ffffffffffffffffffffffffffffffffffffffff160361086b576040517f08c379a000000000000000000000000000000000000000000000000000000000815260040161086290612857565b60405180910390fd5b600360008373ffffffffffffffffffffffffffffffffffffffff1673ffffffffffffffffffffffffffffffffffffffff168152602001908152602001600020549050919050565b6108ba611064565b73ffffffffffffffffffffffffffffffffffffffff166108d861093a565b73ffffffffffffffffffffffffffffffffffffffff161461092e576040517f08c379a0000000000000000000000000000000000000000000000000000000008152600401610925906128c3565b60405180910390fd5b6109386000611469565b565b6000600760009054906101000a900473ffffffffffffffffffffffffffffffffffffffff16905090565b606060018054610973906124da565b80601f016020809104026020016040519081016040528092919081815260200182805461099f906124da565b80156109ec5780601f106109c1576101008083540402835291602001916109ec565b820191906000526020600020905b8154815290600101906020018083116109cf57829003601f168201915b5050505050905090565b610a08610a01611064565b838361152f565b5050565b610a14611064565b73ffffffffffffffffffffffffffffffffffffffff16610a3261093a565b73ffffffffffffffffffffffffffffffffffffffff1614610a88576040517f08c379a0000000000000000000000000000000000000000000000000000000008152600401610a7f906128c3565b60405180910390fd5b600960008273ffffffffffffffffffffffffffffffffffffffff1673ffffffffffffffffffffffffffffffffffffffff16815260200190815260200160002060009054906101000a900460ff1615610b15576040517f08c379a0000000000000000000000000000000000000000000000000000000008152600401610b0c90612955565b60405180910390fd5b6001600960008373ffffffffffffffffffffffffffffffffffffffff1673ffffffffffffffffffffffffffffffffffffffff16815260200190815260200160002060006101000a81548160ff02191690831515021790555050565b610b81610b7b611064565b83611125565b610bc0576040517f08c379a0000000000000000000000000000000000000000000000000000000008152600401610bb790612733565b60405180910390fd5b610bcc8484848461169b565b50505050565b60096020528060005260406000206000915054906101000a900460ff1681565b6060610bfd82610ff8565b610c3c576040517f08c379a0000000000000000000000000000000000000000000000000000000008152600401610c33906129e7565b60405180910390fd5b6000600660008481526020019081526020016000208054610c5c906124da565b80601f0160208091040260200160405190810160405280929190818152602001828054610c88906124da565b8015610cd55780601f10610caa57610100808354040283529160200191610cd5565b820191906000526020600020905b815481529060010190602001808311610cb857829003601f168201915b505050505090506000610ce66116f7565b90506000815103610cfb578192505050610d3e565b600082511115610d30578082604051602001610d18929190612a43565b60405160208183030381529060405292505050610d3e565b610d398461170e565b925050505b919050565b600960003373ffffffffffffffffffffffffffffffffffffffff1673ffffffffffffffffffffffffffffffffffffffff16815260200190815260200160002060009054906101000a900460ff16610dcf576040517f08c379a0000000000000000000000000000000000000000000000000000000008152600401610dc690612ad9565b60405180910390fd5b610de282610ddd60086117b5565b6117c3565b610dec600861199c565b610dff81610dfa60086117b5565b6119b2565b5050565b6000600560008473ffffffffffffffffffffffffffffffffffffffff1673ffffffffffffffffffffffffffffffffffffffff16815260200190815260200160002060008373ffffffffffffffffffffffffffffffffffffffff1673ffffffffffffffffffffffffffffffffffffffff16815260200190815260200160002060009054906101000a900460ff16905092915050565b610e9f611064565b73ffffffffffffffffffffffffffffffffffffffff16610ebd61093a565b73ffffffffffffffffffffffffffffffffffffffff1614610f13576040517f08c379a0000000000000000000000000000000000000000000000000000000008152600401610f0a906128c3565b60405180910390fd5b600073ffffffffffffffffffffffffffffffffffffffff168173ffffffffffffffffffffffffffffffffffffffff1603610f82576040517f08c379a0000000000000000000000000000000000000000000000000000000008152600401610f7990612b6b565b60405180910390fd5b610f8b81611469565b50565b60007f01ffc9a7000000000000000000000000000000000000000000000000000000007bffffffffffffffffffffffffffffffffffffffffffffffffffffffff1916827bffffffffffffffffffffffffffffffffffffffffffffffffffffffff1916149050919050565b60008073ffffffffffffffffffffffffffffffffffffffff166002600084815260200190815260200160002060009054906101000a900473ffffffffffffffffffffffffffffffffffffffff1673ffffffffffffffffffffffffffffffffffffffff1614159050919050565b600033905090565b816004600083815260200190815260200160002060006101000a81548173ffffffffffffffffffffffffffffffffffffffff021916908373ffffffffffffffffffffffffffffffffffffffff160217905550808273ffffffffffffffffffffffffffffffffffffffff166110df8361074a565b73ffffffffffffffffffffffffffffffffffffffff167f8c5be1e5ebec7d5bd14f71427d1e84f3dd0314c0f7b2291e5b200ac8c7c3b92560405160405180910390a45050565b600061113082610ff8565b61116f576040517f08c379a000000000000000000000000000000000000000000000000000000000815260040161116690612bfd565b60405180910390fd5b600061117a8361074a565b90508073ffffffffffffffffffffffffffffffffffffffff168473ffffffffffffffffffffffffffffffffffffffff1614806111bc57506111bb8185610e03565b5b806111fa57508373ffffffffffffffffffffffffffffffffffffffff166111e28461052e565b73ffffffffffffffffffffffffffffffffffffffff16145b91505092915050565b8273ffffffffffffffffffffffffffffffffffffffff166112238261074a565b73ffffffffffffffffffffffffffffffffffffffff1614611279576040517f08c379a000000000000000000000000000000000000000000000000000000000815260040161127090612c8f565b60405180910390fd5b600073ffffffffffffffffffffffffffffffffffffffff168273ffffffffffffffffffffffffffffffffffffffff16036112e8576040517f08c379a00000000000000000000000000000000000000000000000000000000081526004016112df90612d21565b60405180910390fd5b6112f38383836119c0565b6112fe60008261106c565b6001600360008573ffffffffffffffffffffffffffffffffffffffff1673ffffffffffffffffffffffffffffffffffffffff168152602001908152602001600020600082825461134e9190612d70565b925050819055506001600360008473ffffffffffffffffffffffffffffffffffffffff1673ffffffffffffffffffffffffffffffffffffffff16815260200190815260200160002060008282546113a59190612da4565b92505081905550816002600083815260200190815260200160002060006101000a81548173ffffffffffffffffffffffffffffffffffffffff021916908373ffffffffffffffffffffffffffffffffffffffff160217905550808273ffffffffffffffffffffffffffffffffffffffff168473ffffffffffffffffffffffffffffffffffffffff167fddf252ad1be2c89b69c2b068fc378daa952ba7f163c4a11628f55a4df523b3ef60405160405180910390a46114648383836119c5565b505050565b6000600760009054906101000a900473ffffffffffffffffffffffffffffffffffffffff16905081600760006101000a81548173ffffffffffffffffffffffffffffffffffffffff021916908373ffffffffffffffffffffffffffffffffffffffff1602179055508173ffffffffffffffffffffffffffffffffffffffff168173ffffffffffffffffffffffffffffffffffffffff167f8be0079c531659141344cd1fd0a4f28419497f9722a3daafe3b4186f6b6457e060405160405180910390a35050565b8173ffffffffffffffffffffffffffffffffffffffff168373ffffffffffffffffffffffffffffffffffffffff160361159d576040517f08c379a000000000000000000000000000000000000000000000000000000000815260040161159490612e46565b60405180910390fd5b80600560008573ffffffffffffffffffffffffffffffffffffffff1673ffffffffffffffffffffffffffffffffffffffff16815260200190815260200160002060008473ffffffffffffffffffffffffffffffffffffffff1673ffffffffffffffffffffffffffffffffffffffff16815260200190815260200160002060006101000a81548160ff0219169083151502179055508173ffffffffffffffffffffffffffffffffffffffff168373ffffffffffffffffffffffffffffffffffffffff167f17307eab39ab6107e8899845ad3d59bd9653f200f220920489ca2b5937696c318360405161168e9190611e9f565b60405180910390a3505050565b6116a6848484611203565b6116b2848484846119ca565b6116f1576040517f08c379a00000000000000000000000000000000000000000000000000000000081526004016116e890612ed8565b60405180910390fd5b50505050565b606060405180602001604052806000815250905090565b606061171982610ff8565b611758576040517f08c379a000000000000000000000000000000000000000000000000000000000815260040161174f90612f6a565b60405180910390fd5b60006117626116f7565b9050600081511161178257604051806020016040528060008152506117ad565b8061178c84611b51565b60405160200161179d929190612a43565b6040516020818303038152906040525b915050919050565b600081600001549050919050565b600073ffffffffffffffffffffffffffffffffffffffff168273ffffffffffffffffffffffffffffffffffffffff1603611832576040517f08c379a000000000000000000000000000000000000000000000000000000000815260040161182990612fd6565b60405180910390fd5b61183b81610ff8565b1561187b576040517f08c379a000000000000000000000000000000000000000000000000000000000815260040161187290613042565b60405180910390fd5b611887600083836119c0565b6001600360008473ffffffffffffffffffffffffffffffffffffffff1673ffffffffffffffffffffffffffffffffffffffff16815260200190815260200160002060008282546118d79190612da4565b92505081905550816002600083815260200190815260200160002060006101000a81548173ffffffffffffffffffffffffffffffffffffffff021916908373ffffffffffffffffffffffffffffffffffffffff160217905550808273ffffffffffffffffffffffffffffffffffffffff16600073ffffffffffffffffffffffffffffffffffffffff167fddf252ad1be2c89b69c2b068fc378daa952ba7f163c4a11628f55a4df523b3ef60405160405180910390a4611998600083836119c5565b5050565b6001816000016000828254019250508190555050565b6119bc8183611cb1565b5050565b505050565b505050565b60006119eb8473ffffffffffffffffffffffffffffffffffffffff16611d25565b15611b44578373ffffffffffffffffffffffffffffffffffffffff1663150b7a02611a14611064565b8786866040518563ffffffff1660e01b8152600401611a3694939291906130b7565b6020604051808303816000875af1925050508015611a7257506040513d601f19601f82011682018060405250810190611a6f9190613118565b60015b611af4573d8060008114611aa2576040519150601f19603f3d011682016040523d82523d6000602084013e611aa7565b606091505b506000815103611aec576040517f08c379a0000000000000000000000000000000000000000000000000000000008152600401611ae390612ed8565b60405180910390fd5b805181602001fd5b63150b7a0260e01b7bffffffffffffffffffffffffffffffffffffffffffffffffffffffff1916817bffffffffffffffffffffffffffffffffffffffffffffffffffffffff191614915050611b49565b600190505b949350505050565b606060008203611b98576040518060400160405280600181526020017f30000000000000000000000000000000000000000000000000000000000000008152509050611cac565b600082905060005b60008214611bca578080611bb390613145565b915050600a82611bc391906131bc565b9150611ba0565b60008167ffffffffffffffff811115611be657611be56121c0565b5b6040519080825280601f01601f191660200182016040528015611c185781602001600182028036833780820191505090505b5090505b60008514611ca557600182611c319190612d70565b9150600a85611c4091906131ed565b6030611c4c9190612da4565b60f81b818381518110611c6257611c6161321e565b5b60200101907effffffffffffffffffffffffffffffffffffffffffffffffffffffffffffff1916908160001a905350600a85611c9e91906131bc565b9450611c1c565b8093505050505b919050565b611cba82610ff8565b611cf9576040517f08c379a0000000000000000000000000000000000000000000000000000000008152600401611cf0906132bf565b60405180910390fd5b80600660008481526020019081526020016000209080519060200190611d20929190611d48565b505050565b6000808273ffffffffffffffffffffffffffffffffffffffff163b119050919050565b828054611d54906124da565b90600052602060002090601f016020900481019282611d765760008555611dbd565b82601f10611d8f57805160ff1916838001178555611dbd565b82800160010185558215611dbd579182015b82811115611dbc578251825591602001919060010190611da1565b5b509050611dca9190611dce565b5090565b5b80821115611de7576000816000905550600101611dcf565b5090565b6000604051905090565b600080fd5b600080fd5b60007fffffffff0000000000000000000000000000000000000000000000000000000082169050919050565b611e3481611dff565b8114611e3f57600080fd5b50565b600081359050611e5181611e2b565b92915050565b600060208284031215611e6d57611e6c611df5565b5b6000611e7b84828501611e42565b91505092915050565b60008115159050919050565b611e9981611e84565b82525050565b6000602082019050611eb46000830184611e90565b92915050565b600081519050919050565b600082825260208201905092915050565b60005b83811015611ef4578082015181840152602081019050611ed9565b83811115611f03576000848401525b50505050565b6000601f19601f8301169050919050565b6000611f2582611eba565b611f2f8185611ec5565b9350611f3f818560208601611ed6565b611f4881611f09565b840191505092915050565b60006020820190508181036000830152611f6d8184611f1a565b905092915050565b6000819050919050565b611f8881611f75565b8114611f9357600080fd5b50565b600081359050611fa581611f7f565b92915050565b600060208284031215611fc157611fc0611df5565b5b6000611fcf84828501611f96565b91505092915050565b600073ffffffffffffffffffffffffffffffffffffffff82169050919050565b600061200382611fd8565b9050919050565b61201381611ff8565b82525050565b600060208201905061202e600083018461200a565b92915050565b61203d81611ff8565b811461204857600080fd5b50565b60008135905061205a81612034565b92915050565b6000806040838503121561207757612076611df5565b5b60006120858582860161204b565b925050602061209685828601611f96565b9150509250929050565b6000806000606084860312156120b9576120b8611df5565b5b60006120c78682870161204b565b93505060206120d88682870161204b565b92505060406120e986828701611f96565b9150509250925092565b60006020828403121561210957612108611df5565b5b60006121178482850161204b565b91505092915050565b61212981611f75565b82525050565b60006020820190506121446000830184612120565b92915050565b61215381611e84565b811461215e57600080fd5b50565b6000813590506121708161214a565b92915050565b6000806040838503121561218d5761218c611df5565b5b600061219b8582860161204b565b92505060206121ac85828601612161565b9150509250929050565b600080fd5b600080fd5b7f4e487b7100000000000000000000000000000000000000000000000000000000600052604160045260246000fd5b6121f882611f09565b810181811067ffffffffffffffff82111715612217576122166121c0565b5b80604052505050565b600061222a611deb565b905061223682826121ef565b919050565b600067ffffffffffffffff821115612256576122556121c0565b5b61225f82611f09565b9050602081019050919050565b82818337600083830152505050565b600061228e6122898461223b565b612220565b9050828152602081018484840111156122aa576122a96121bb565b5b6122b584828561226c565b509392505050565b600082601f8301126122d2576122d16121b6565b5b81356122e284826020860161227b565b91505092915050565b6000806000806080858703121561230557612304611df5565b5b60006123138782880161204b565b94505060206123248782880161204b565b935050604061233587828801611f96565b925050606085013567ffffffffffffffff81111561235657612355611dfa565b5b612362878288016122bd565b91505092959194509250565b600067ffffffffffffffff821115612389576123886121c0565b5b61239282611f09565b9050602081019050919050565b60006123b26123ad8461236e565b612220565b9050828152602081018484840111156123ce576123cd6121bb565b5b6123d984828561226c565b509392505050565b600082601f8301126123f6576123f56121b6565b5b813561240684826020860161239f565b91505092915050565b6000806040838503121561242657612425611df5565b5b60006124348582860161204b565b925050602083013567ffffffffffffffff81111561245557612454611dfa565b5b612461858286016123e1565b9150509250929050565b6000806040838503121561248257612481611df5565b5b60006124908582860161204b565b92505060206124a18582860161204b565b9150509250929050565b7f4e487b7100000000000000000000000000000000000000000000000000000000600052602260045260246000fd5b600060028204905060018216806124f257607f821691505b602082108103612505576125046124ab565b5b50919050565b7f4552433732313a20617070726f76656420717565727920666f72206e6f6e657860008201527f697374656e7420746f6b656e0000000000000000000000000000000000000000602082015250565b6000612567602c83611ec5565b91506125728261250b565b604082019050919050565b600060208201905081810360008301526125968161255a565b9050919050565b7f4552433732313a20617070726f76616c20746f2063757272656e74206f776e6560008201527f7200000000000000000000000000000000000000000000000000000000000000602082015250565b60006125f9602183611ec5565b91506126048261259d565b604082019050919050565b60006020820190508181036000830152612628816125ec565b9050919050565b7f4552433732313a20617070726f76652063616c6c6572206973206e6f74206f7760008201527f6e6572206e6f7220617070726f76656420666f7220616c6c0000000000000000602082015250565b600061268b603883611ec5565b91506126968261262f565b604082019050919050565b600060208201905081810360008301526126ba8161267e565b9050919050565b7f4552433732313a207472616e736665722063616c6c6572206973206e6f74206f60008201527f776e6572206e6f7220617070726f766564000000000000000000000000000000602082015250565b600061271d603183611ec5565b9150612728826126c1565b604082019050919050565b6000602082019050818103600083015261274c81612710565b9050919050565b7f4552433732313a206f776e657220717565727920666f72206e6f6e657869737460008201527f656e7420746f6b656e0000000000000000000000000000000000000000000000602082015250565b60006127af602983611ec5565b91506127ba82612753565b604082019050919050565b600060208201905081810360008301526127de816127a2565b9050919050565b7f4552433732313a2062616c616e636520717565727920666f7220746865207a6560008201527f726f206164647265737300000000000000000000000000000000000000000000602082015250565b6000612841602a83611ec5565b915061284c826127e5565b604082019050919050565b6000602082019050818103600083015261287081612834565b9050919050565b7f4f776e61626c653a2063616c6c6572206973206e6f7420746865206f776e6572600082015250565b60006128ad602083611ec5565b91506128b882612877565b602082019050919050565b600060208201905081810360008301526128dc816128a0565b9050919050565b7f5241464f63656e654e46543a3a617574686f72697a653a20416464726573732060008201527f616c726561647920617574686f72697a65642100000000000000000000000000602082015250565b600061293f603383611ec5565b915061294a826128e3565b604082019050919050565b6000602082019050818103600083015261296e81612932565b9050919050565b7f45524337323155524953746f726167653a2055524920717565727920666f722060008201527f6e6f6e6578697374656e7420746f6b656e000000000000000000000000000000602082015250565b60006129d1603183611ec5565b91506129dc82612975565b604082019050919050565b60006020820190508181036000830152612a00816129c4565b9050919050565b600081905092915050565b6000612a1d82611eba565b612a278185612a07565b9350612a37818560208601611ed6565b80840191505092915050565b6000612a4f8285612a12565b9150612a5b8284612a12565b91508190509392505050565b7f5241464f63656e654e46543a3a6d696e743a2041646472657373206e6f74206160008201527f7574686f72697a656420746f206d696e74210000000000000000000000000000602082015250565b6000612ac3603283611ec5565b9150612ace82612a67565b604082019050919050565b60006020820190508181036000830152612af281612ab6565b9050919050565b7f4f776e61626c653a206e6577206f776e657220697320746865207a65726f206160008201527f6464726573730000000000000000000000000000000000000000000000000000602082015250565b6000612b55602683611ec5565b9150612b6082612af9565b604082019050919050565b60006020820190508181036000830152612b8481612b48565b9050919050565b7f4552433732313a206f70657261746f7220717565727920666f72206e6f6e657860008201527f697374656e7420746f6b656e0000000000000000000000000000000000000000602082015250565b6000612be7602c83611ec5565b9150612bf282612b8b565b604082019050919050565b60006020820190508181036000830152612c1681612bda565b9050919050565b7f4552433732313a207472616e736665722066726f6d20696e636f72726563742060008201527f6f776e6572000000000000000000000000000000000000000000000000000000602082015250565b6000612c79602583611ec5565b9150612c8482612c1d565b604082019050919050565b60006020820190508181036000830152612ca881612c6c565b9050919050565b7f4552433732313a207472616e7366657220746f20746865207a65726f2061646460008201527f7265737300000000000000000000000000000000000000000000000000000000602082015250565b6000612d0b602483611ec5565b9150612d1682612caf565b604082019050919050565b60006020820190508181036000830152612d3a81612cfe565b9050919050565b7f4e487b7100000000000000000000000000000000000000000000000000000000600052601160045260246000fd5b6000612d7b82611f75565b9150612d8683611f75565b925082821015612d9957612d98612d41565b5b828203905092915050565b6000612daf82611f75565b9150612dba83611f75565b9250827fffffffffffffffffffffffffffffffffffffffffffffffffffffffffffffffff03821115612def57612dee612d41565b5b828201905092915050565b7f4552433732313a20617070726f766520746f2063616c6c657200000000000000600082015250565b6000612e30601983611ec5565b9150612e3b82612dfa565b602082019050919050565b60006020820190508181036000830152612e5f81612e23565b9050919050565b7f4552433732313a207472616e7366657220746f206e6f6e20455243373231526560008201527f63656976657220696d706c656d656e7465720000000000000000000000000000602082015250565b6000612ec2603283611ec5565b9150612ecd82612e66565b604082019050919050565b60006020820190508181036000830152612ef181612eb5565b9050919050565b7f4552433732314d657461646174613a2055524920717565727920666f72206e6f60008201527f6e6578697374656e7420746f6b656e0000000000000000000000000000000000602082015250565b6000612f54602f83611ec5565b9150612f5f82612ef8565b604082019050919050565b60006020820190508181036000830152612f8381612f47565b9050919050565b7f4552433732313a206d696e7420746f20746865207a65726f2061646472657373600082015250565b6000612fc0602083611ec5565b9150612fcb82612f8a565b602082019050919050565b60006020820190508181036000830152612fef81612fb3565b9050919050565b7f4552433732313a20746f6b656e20616c7265616479206d696e74656400000000600082015250565b600061302c601c83611ec5565b915061303782612ff6565b602082019050919050565b6000602082019050818103600083015261305b8161301f565b9050919050565b600081519050919050565b600082825260208201905092915050565b600061308982613062565b613093818561306d565b93506130a3818560208601611ed6565b6130ac81611f09565b840191505092915050565b60006080820190506130cc600083018761200a565b6130d9602083018661200a565b6130e66040830185612120565b81810360608301526130f8818461307e565b905095945050505050565b60008151905061311281611e2b565b92915050565b60006020828403121561312e5761312d611df5565b5b600061313c84828501613103565b91505092915050565b600061315082611f75565b91507fffffffffffffffffffffffffffffffffffffffffffffffffffffffffffffffff820361318257613181612d41565b5b600182019050919050565b7f4e487b7100000000000000000000000000000000000000000000000000000000600052601260045260246000fd5b60006131c782611f75565b91506131d283611f75565b9250826131e2576131e161318d565b5b828204905092915050565b60006131f882611f75565b915061320383611f75565b9250826132135761321261318d565b5b828206905092915050565b7f4e487b7100000000000000000000000000000000000000000000000000000000600052603260045260246000fd5b7f45524337323155524953746f726167653a2055524920736574206f66206e6f6e60008201527f6578697374656e7420746f6b656e000000000000000000000000000000000000602082015250565b60006132a9602e83611ec5565b91506132b48261324d565b604082019050919050565b600060208201905081810360008301526132d88161329c565b905091905056fea2646970667358221220f1e09af0b90ed3aa6195848960330ece3ab3b18b01daf492e39ecffeb27a1c2664736f6c634300080d0033",
  "immutableReferences": {},
  "source": "pragma solidity ^0.8.0;\r\n\r\nimport \"@openzeppelin/contracts/access/Ownable.sol\";\r\nimport \"@openzeppelin/contracts/token/ERC721/extensions/ERC721URIStorage.sol\";\r\nimport \"@openzeppelin/contracts/utils/Counters.sol\";\r\nimport \"./interfaces/IRAFOceneNFT.sol\";\r\n\r\ncontract RAFOceneNFT is IRAFOceneNFT, ERC721URIStorage, Ownable {\r\n    using Counters for Counters.Counter;\r\n    Counters.Counter private _nextTokenID;\r\n\r\n    mapping(address => bool) public authorized;\r\n\r\n    constructor () ERC721(\"RAF Ocene\", \"RAFO\") {}\r\n\r\n    function authorize(address _addr) external onlyOwner{\r\n        require(!authorized[_addr], \"RAFOceneNFT::authorize: Address already authorized!\");\r\n\r\n        authorized[_addr] = true;\r\n    }\r\n\r\n    function mint(address to, string memory uri) external {\r\n        require(authorized[msg.sender], \"RAFOceneNFT::mint: Address not authorized to mint!\");\r\n    \r\n        _mint(to, Counters.current(_nextTokenID));\r\n        Counters.increment(_nextTokenID);\r\n        _setNFTUri(uri, Counters.current(_nextTokenID));\r\n    }\r\n\r\n    function _setNFTUri(string memory _uri, uint256 _tokenId) internal {            \r\n        _setTokenURI(_tokenId, _uri);\r\n    }\r\n\r\n}",
  "sourcePath": "D:\\rafsystem\\smart-contracts\\contracts\\RAFOceneNFT.sol",
  "compiler": {
    "name": "solc",
    "version": "0.8.13+commit.abaa5c0e.Emscripten.clang"
  },
  "schemaVersion": "3.4.4",
  "updatedAt": "2022-05-08T16:12:16.978Z",
  "networkType": "ethereum",
  "devdoc": {
    "kind": "dev",
    "methods": {
      "approve(address,uint256)": {
        "details": "See {IERC721-approve}."
      },
      "balanceOf(address)": {
        "details": "See {IERC721-balanceOf}."
      },
      "getApproved(uint256)": {
        "details": "See {IERC721-getApproved}."
      },
      "isApprovedForAll(address,address)": {
        "details": "See {IERC721-isApprovedForAll}."
      },
      "name()": {
        "details": "See {IERC721Metadata-name}."
      },
      "owner()": {
        "details": "Returns the address of the current owner."
      },
      "ownerOf(uint256)": {
        "details": "See {IERC721-ownerOf}."
      },
      "renounceOwnership()": {
        "details": "Leaves the contract without owner. It will not be possible to call `onlyOwner` functions anymore. Can only be called by the current owner. NOTE: Renouncing ownership will leave the contract without an owner, thereby removing any functionality that is only available to the owner."
      },
      "safeTransferFrom(address,address,uint256)": {
        "details": "See {IERC721-safeTransferFrom}."
      },
      "safeTransferFrom(address,address,uint256,bytes)": {
        "details": "See {IERC721-safeTransferFrom}."
      },
      "setApprovalForAll(address,bool)": {
        "details": "See {IERC721-setApprovalForAll}."
      },
      "supportsInterface(bytes4)": {
        "details": "See {IERC165-supportsInterface}."
      },
      "symbol()": {
        "details": "See {IERC721Metadata-symbol}."
      },
      "tokenURI(uint256)": {
        "details": "See {IERC721Metadata-tokenURI}."
      },
      "transferFrom(address,address,uint256)": {
        "details": "See {IERC721-transferFrom}."
      },
      "transferOwnership(address)": {
        "details": "Transfers ownership of the contract to a new account (`newOwner`). Can only be called by the current owner."
      }
    },
    "version": 1
  },
  "userdoc": {
    "kind": "user",
    "methods": {},
    "version": 1
  }
}