{
  "contractName": "RAFSystem",
  "abi": [
    {
      "inputs": [
        {
          "internalType": "contract RAFOceneNFT",
          "name": "_ocena",
          "type": "address"
        }
      ],
      "stateMutability": "nonpayable",
      "type": "constructor"
    },
    {
      "anonymous": false,
      "inputs": [
        {
          "indexed": false,
          "internalType": "uint8",
          "name": "_predmetID",
          "type": "uint8"
        },
        {
          "indexed": false,
          "internalType": "uint256",
          "name": "_vremeOdrzavanja",
          "type": "uint256"
        }
      ],
      "name": "DodatIspit",
      "type": "event"
    },
    {
      "anonymous": false,
      "inputs": [
        {
          "indexed": true,
          "internalType": "string",
          "name": "_nazivPredmeta",
          "type": "string"
        },
        {
          "indexed": true,
          "internalType": "uint256",
          "name": "_predmetID",
          "type": "uint256"
        }
      ],
      "name": "DodatPredmet",
      "type": "event"
    },
    {
      "anonymous": false,
      "inputs": [
        {
          "indexed": false,
          "internalType": "address",
          "name": "_noviProfesor",
          "type": "address"
        }
      ],
      "name": "DodatProfesor",
      "type": "event"
    },
    {
      "anonymous": false,
      "inputs": [
        {
          "components": [
            {
              "internalType": "enum IRAFSystem.Smer",
              "name": "smer",
              "type": "uint8"
            },
            {
              "internalType": "uint8",
              "name": "godinaStudiranja",
              "type": "uint8"
            },
            {
              "internalType": "string",
              "name": "indeks",
              "type": "string"
            }
          ],
          "indexed": false,
          "internalType": "struct IRAFSystem.Student",
          "name": "_student",
          "type": "tuple"
        }
      ],
      "name": "IspisanStudent",
      "type": "event"
    },
    {
      "anonymous": false,
      "inputs": [
        {
          "components": [
            {
              "internalType": "uint8",
              "name": "predmetID",
              "type": "uint8"
            },
            {
              "internalType": "uint256",
              "name": "vremeOdrzavanja",
              "type": "uint256"
            },
            {
              "internalType": "address[]",
              "name": "studenti",
              "type": "address[]"
            },
            {
              "internalType": "bool",
              "name": "odrzan",
              "type": "bool"
            }
          ],
          "indexed": false,
          "internalType": "struct IRAFSystem.Ispit",
          "name": "ispit",
          "type": "tuple"
        }
      ],
      "name": "OdrzanIspit",
      "type": "event"
    },
    {
      "anonymous": false,
      "inputs": [
        {
          "indexed": false,
          "internalType": "address",
          "name": "_student",
          "type": "address"
        },
        {
          "indexed": false,
          "internalType": "uint256",
          "name": "_predmetID",
          "type": "uint256"
        }
      ],
      "name": "PolozenPredmet",
      "type": "event"
    },
    {
      "anonymous": false,
      "inputs": [
        {
          "components": [
            {
              "internalType": "enum IRAFSystem.Smer",
              "name": "smer",
              "type": "uint8"
            },
            {
              "internalType": "uint8",
              "name": "godinaStudiranja",
              "type": "uint8"
            },
            {
              "internalType": "string",
              "name": "indeks",
              "type": "string"
            }
          ],
          "indexed": false,
          "internalType": "struct IRAFSystem.Student",
          "name": "_student",
          "type": "tuple"
        }
      ],
      "name": "PrijavljenIspit",
      "type": "event"
    },
    {
      "anonymous": false,
      "inputs": [
        {
          "components": [
            {
              "internalType": "enum IRAFSystem.Smer",
              "name": "smer",
              "type": "uint8"
            },
            {
              "internalType": "uint8",
              "name": "godinaStudiranja",
              "type": "uint8"
            },
            {
              "internalType": "string",
              "name": "indeks",
              "type": "string"
            }
          ],
          "indexed": false,
          "internalType": "struct IRAFSystem.Student",
          "name": "_student",
          "type": "tuple"
        }
      ],
      "name": "UpisanStudent",
      "type": "event"
    },
    {
      "inputs": [
        {
          "internalType": "uint256",
          "name": "",
          "type": "uint256"
        }
      ],
      "name": "ispiti",
      "outputs": [
        {
          "internalType": "uint8",
          "name": "predmetID",
          "type": "uint8"
        },
        {
          "internalType": "uint256",
          "name": "vremeOdrzavanja",
          "type": "uint256"
        },
        {
          "internalType": "bool",
          "name": "odrzan",
          "type": "bool"
        }
      ],
      "stateMutability": "view",
      "type": "function",
      "constant": true
    },
    {
      "inputs": [],
      "name": "ocena",
      "outputs": [
        {
          "internalType": "contract RAFOceneNFT",
          "name": "",
          "type": "address"
        }
      ],
      "stateMutability": "view",
      "type": "function",
      "constant": true
    },
    {
      "inputs": [
        {
          "internalType": "uint256",
          "name": "",
          "type": "uint256"
        }
      ],
      "name": "predmeti",
      "outputs": [
        {
          "internalType": "uint8",
          "name": "espb",
          "type": "uint8"
        },
        {
          "internalType": "string",
          "name": "nazivPredmeta",
          "type": "string"
        },
        {
          "internalType": "string",
          "name": "profesor",
          "type": "string"
        }
      ],
      "stateMutability": "view",
      "type": "function",
      "constant": true
    },
    {
      "inputs": [
        {
          "internalType": "address",
          "name": "",
          "type": "address"
        }
      ],
      "name": "profesori",
      "outputs": [
        {
          "internalType": "bool",
          "name": "",
          "type": "bool"
        }
      ],
      "stateMutability": "view",
      "type": "function",
      "constant": true
    },
    {
      "inputs": [
        {
          "internalType": "address",
          "name": "",
          "type": "address"
        }
      ],
      "name": "studenti",
      "outputs": [
        {
          "internalType": "enum IRAFSystem.Smer",
          "name": "smer",
          "type": "uint8"
        },
        {
          "internalType": "uint8",
          "name": "godinaStudiranja",
          "type": "uint8"
        },
        {
          "internalType": "string",
          "name": "indeks",
          "type": "string"
        }
      ],
      "stateMutability": "view",
      "type": "function",
      "constant": true
    },
    {
      "inputs": [
        {
          "internalType": "address",
          "name": "_noviStudent",
          "type": "address"
        },
        {
          "internalType": "string",
          "name": "_indeks",
          "type": "string"
        },
        {
          "internalType": "enum IRAFSystem.Smer",
          "name": "_smer",
          "type": "uint8"
        }
      ],
      "name": "upisiStudenta",
      "outputs": [],
      "stateMutability": "nonpayable",
      "type": "function"
    },
    {
      "inputs": [
        {
          "internalType": "address",
          "name": "_student",
          "type": "address"
        }
      ],
      "name": "ispisiStudenta",
      "outputs": [],
      "stateMutability": "nonpayable",
      "type": "function"
    },
    {
      "inputs": [
        {
          "internalType": "uint8",
          "name": "_poeni",
          "type": "uint8"
        }
      ],
      "name": "izracunajOcenu",
      "outputs": [
        {
          "internalType": "uint8",
          "name": "",
          "type": "uint8"
        }
      ],
      "stateMutability": "view",
      "type": "function",
      "constant": true
    },
    {
      "inputs": [],
      "name": "getLatestPredmetID",
      "outputs": [
        {
          "internalType": "uint256",
          "name": "",
          "type": "uint256"
        }
      ],
      "stateMutability": "view",
      "type": "function",
      "constant": true
    },
    {
      "inputs": [],
      "name": "getLatestIspitID",
      "outputs": [
        {
          "internalType": "uint256",
          "name": "",
          "type": "uint256"
        }
      ],
      "stateMutability": "view",
      "type": "function",
      "constant": true
    },
    {
      "inputs": [
        {
          "internalType": "uint256",
          "name": "_predmetID",
          "type": "uint256"
        }
      ],
      "name": "getPredmet",
      "outputs": [
        {
          "components": [
            {
              "internalType": "uint8",
              "name": "espb",
              "type": "uint8"
            },
            {
              "internalType": "string",
              "name": "nazivPredmeta",
              "type": "string"
            },
            {
              "internalType": "string",
              "name": "profesor",
              "type": "string"
            }
          ],
          "internalType": "struct IRAFSystem.Predmet",
          "name": "",
          "type": "tuple"
        }
      ],
      "stateMutability": "view",
      "type": "function",
      "constant": true
    },
    {
      "inputs": [
        {
          "internalType": "address",
          "name": "_noviProfesor",
          "type": "address"
        }
      ],
      "name": "dodajProfesora",
      "outputs": [],
      "stateMutability": "nonpayable",
      "type": "function"
    },
    {
      "inputs": [
        {
          "internalType": "string",
          "name": "_nazivPredmeta",
          "type": "string"
        },
        {
          "internalType": "string",
          "name": "_imeProfesora",
          "type": "string"
        },
        {
          "internalType": "uint8",
          "name": "_espb",
          "type": "uint8"
        }
      ],
      "name": "dodajPredmet",
      "outputs": [],
      "stateMutability": "nonpayable",
      "type": "function"
    },
    {
      "inputs": [
        {
          "internalType": "uint8",
          "name": "_predmetID",
          "type": "uint8"
        },
        {
          "internalType": "uint256",
          "name": "_vremeOdrzavanja",
          "type": "uint256"
        }
      ],
      "name": "dodajIspit",
      "outputs": [],
      "stateMutability": "nonpayable",
      "type": "function"
    },
    {
      "inputs": [
        {
          "internalType": "uint8",
          "name": "_ispitID",
          "type": "uint8"
        }
      ],
      "name": "prijaviIspit",
      "outputs": [],
      "stateMutability": "payable",
      "type": "function",
      "payable": true
    },
    {
      "inputs": [
        {
          "internalType": "uint8",
          "name": "_ispitID",
          "type": "uint8"
        },
        {
          "internalType": "uint8[]",
          "name": "ocene",
          "type": "uint8[]"
        }
      ],
      "name": "odrziIspit",
      "outputs": [],
      "stateMutability": "nonpayable",
      "type": "function"
    },
    {
      "inputs": [],
      "name": "platiSkolarinu",
      "outputs": [],
      "stateMutability": "payable",
      "type": "function",
      "payable": true
    }
  ],
  "bytecode": "0x60806040523480156200001157600080fd5b506040516200403538038062004035833981810160405281019062000037919062000666565b6001600460003373ffffffffffffffffffffffffffffffffffffffff1673ffffffffffffffffffffffffffffffffffffffff16815260200190815260200160002060006101000a81548160ff02191690831515021790555080600260006101000a81548173ffffffffffffffffffffffffffffffffffffffff021916908373ffffffffffffffffffffffffffffffffffffffff1602179055506200014e6040518060400160405280600f81526020017f4453202620416c676f726974686d7300000000000000000000000000000000008152506040518060400160405280600881526020017f4a6f686e20446f650000000000000000000000000000000000000000000000008152506008620002cf60201b60201c565b620001cc6040518060400160405280600681526020017f4d617468203100000000000000000000000000000000000000000000000000008152506040518060400160405280600881526020017f4a616e6520446f650000000000000000000000000000000000000000000000008152506008620002cf60201b60201c565b6200024a6040518060400160405280600681526020017f4d617468203200000000000000000000000000000000000000000000000000008152506040518060400160405280600881526020017f4a616e6520446f650000000000000000000000000000000000000000000000008152506008620002cf60201b60201c565b620002c86040518060400160405280601b81526020017f496e74726f64756374696f6e20746f2070726f6772616d6d696e6700000000008152506040518060400160405280600f81526020017f566974616c696b204275746572696e00000000000000000000000000000000008152506008620002cf60201b60201c565b506200094b565b600460003373ffffffffffffffffffffffffffffffffffffffff1673ffffffffffffffffffffffffffffffffffffffff16815260200190815260200160002060009054906101000a900460ff166200035e576040517f08c379a00000000000000000000000000000000000000000000000000000000081526004016200035590620006f9565b60405180910390fd5b60008351141580156200037357506000825114155b620003b5576040517f08c379a0000000000000000000000000000000000000000000000000000000008152600401620003ac9062000791565b60405180910390fd5b60008160ff1611620003fe576040517f08c379a0000000000000000000000000000000000000000000000000000000008152600401620003f59062000829565b60405180910390fd5b600060405180606001604052808360ff16815260200185815260200184815250905060006200043960006200051460201b62001d5a1760201c565b9050816005600083815260200190815260200160002060008201518160000160006101000a81548160ff021916908360ff16021790555060208201518160010190805190602001906200048e92919062000538565b506040820151816002019080519060200190620004ad92919062000538565b50905050620004c860006200052260201b62001d681760201c565b8085604051620004d99190620008ce565b60405180910390207faccb74643848443c7b9b9fa77c302e6e06b06175a70e2a1dc7f0aa78d36e848460405160405180910390a35050505050565b600081600001549050919050565b6001816000016000828254019250508190555050565b828054620005469062000916565b90600052602060002090601f0160209004810192826200056a5760008555620005b6565b82601f106200058557805160ff1916838001178555620005b6565b82800160010185558215620005b6579182015b82811115620005b557825182559160200191906001019062000598565b5b509050620005c59190620005c9565b5090565b5b80821115620005e4576000816000905550600101620005ca565b5090565b600080fd5b600073ffffffffffffffffffffffffffffffffffffffff82169050919050565b60006200061a82620005ed565b9050919050565b60006200062e826200060d565b9050919050565b620006408162000621565b81146200064c57600080fd5b50565b600081519050620006608162000635565b92915050565b6000602082840312156200067f576200067e620005e8565b5b60006200068f848285016200064f565b91505092915050565b600082825260208201905092915050565b7f73616d6f50726f6665736f723a204e697374652070726f6665736f7221000000600082015250565b6000620006e1601d8362000698565b9150620006ee82620006a9565b602082019050919050565b600060208201905081810360008301526200071481620006d2565b9050919050565b7f646f64616a507265646d65743a20496d656e6120707265646d6574612069207060008201527f726f6665736f7261206e65206d6f67752062697469207072617a6e6921000000602082015250565b600062000779603d8362000698565b915062000786826200071b565b604082019050919050565b60006020820190508181036000830152620007ac816200076a565b9050919050565b7f646f64616a507265646d65743a2045535042206d6f726120626974692076656360008201527f69206f6420302100000000000000000000000000000000000000000000000000602082015250565b60006200081160278362000698565b91506200081e82620007b3565b604082019050919050565b60006020820190508181036000830152620008448162000802565b9050919050565b600081519050919050565b600081905092915050565b60005b838110156200088157808201518184015260208101905062000864565b8381111562000891576000848401525b50505050565b6000620008a4826200084b565b620008b0818562000856565b9350620008c281856020860162000861565b80840191505092915050565b6000620008dc828462000897565b915081905092915050565b7f4e487b7100000000000000000000000000000000000000000000000000000000600052602260045260246000fd5b600060028204905060018216806200092f57607f821691505b602082108103620009455762000944620008e7565b5b50919050565b6136da806200095b6000396000f3fe6080604052600436106100fe5760003560e01c80639a38322f11610095578063bfa84c1a11610064578063bfa84c1a146102f1578063cf320a1a14610330578063d957f9661461036f578063dd2716d7146103ac578063e2462e6f146103d5576100fe565b80639a38322f14610277578063a0b92544146102a0578063ae9b3ffb146102bc578063b0c96c17146102c6576100fe565b806347504add116100d157806347504add146101d1578063533f1fb7146101fa5780638eb35a37146102235780639987d7611461024c576100fe565b80630ef095cc146101035780632afd8da81461012e578063391c611b1461016b5780634643d74e146101a8575b600080fd5b34801561010f57600080fd5b50610118610414565b60405161012591906120e8565b60405180910390f35b34801561013a57600080fd5b5061015560048036038101906101509190612150565b610431565b604051610162919061218c565b60405180910390f35b34801561017757600080fd5b50610192600480360381019061018d91906121d3565b6104a1565b60405161019f91906122ff565b60405180910390f35b3480156101b457600080fd5b506101cf60048036038101906101ca9190612469565b610676565b005b3480156101dd57600080fd5b506101f860048036038101906101f391906125fd565b610ae5565b005b34801561020657600080fd5b50610221600480360381019061021c919061266c565b610d74565b005b34801561022f57600080fd5b5061024a600480360381019061024591906126f7565b610f8f565b005b34801561025857600080fd5b506102616111a4565b60405161026e91906120e8565b60405180910390f35b34801561028357600080fd5b5061029e600480360381019061029991906126f7565b6111c1565b005b6102ba60048036038101906102b59190612150565b6112df565b005b6102c4611661565b005b3480156102d257600080fd5b506102db611880565b6040516102e89190612783565b60405180910390f35b3480156102fd57600080fd5b50610318600480360381019061031391906126f7565b6118a6565b6040516103279392919061285f565b60405180910390f35b34801561033c57600080fd5b50610357600480360381019061035291906121d3565b611972565b6040516103669392919061289d565b60405180910390f35b34801561037b57600080fd5b50610396600480360381019061039191906126f7565b611ab9565b6040516103a391906128fd565b60405180910390f35b3480156103b857600080fd5b506103d360048036038101906103ce9190612918565b611ad9565b005b3480156103e157600080fd5b506103fc60048036038101906103f791906121d3565b611d16565b60405161040b93929190612958565b60405180910390f35b600060016104226001611d5a565b61042c91906129be565b905090565b600060328260ff1611610447576005905061049c565b603c8260ff161161045b576006905061049c565b60468260ff161161046f576007905061049c565b60508260ff1611610483576008905061049c565b605a8260ff1611610497576009905061049c565b600a90505b919050565b6104a9611f3e565b8160006005600083815260200190815260200160002060010180546104cd90612a21565b90500361050f576040517f08c379a000000000000000000000000000000000000000000000000000000000815260040161050690612ac4565b60405180910390fd5b600560008481526020019081526020016000206040518060600160405290816000820160009054906101000a900460ff1660ff1660ff16815260200160018201805461055a90612a21565b80601f016020809104026020016040519081016040528092919081815260200182805461058690612a21565b80156105d35780601f106105a8576101008083540402835291602001916105d3565b820191906000526020600020905b8154815290600101906020018083116105b657829003601f168201915b505050505081526020016002820180546105ec90612a21565b80601f016020809104026020016040519081016040528092919081815260200182805461061890612a21565b80156106655780601f1061063a57610100808354040283529160200191610665565b820191906000526020600020905b81548152906001019060200180831161064857829003601f168201915b505050505081525050915050919050565b600460003373ffffffffffffffffffffffffffffffffffffffff1673ffffffffffffffffffffffffffffffffffffffff16815260200190815260200160002060009054906101000a900460ff16610702576040517f08c379a00000000000000000000000000000000000000000000000000000000081526004016106f990612b30565b60405180910390fd5b8160ff16600060076000838152602001908152602001600020600101540361075f576040517f08c379a000000000000000000000000000000000000000000000000000000000815260040161075690612bc2565b60405180910390fd5b6007600082815260200190815260200160002060030160009054906101000a900460ff16156107c3576040517f08c379a00000000000000000000000000000000000000000000000000000000081526004016107ba90612c54565b60405180910390fd5b600760008460ff16815260200190815260200160002060020180549050825114610822576040517f08c379a000000000000000000000000000000000000000000000000000000000815260040161081990612cc0565b60405180910390fd5b6000600760008560ff1681526020019081526020016000206040518060800160405290816000820160009054906101000a900460ff1660ff1660ff16815260200160018201548152602001600282018054806020026020016040519081016040528092919081815260200182805480156108f157602002820191906000526020600020905b8160009054906101000a900473ffffffffffffffffffffffffffffffffffffffff1673ffffffffffffffffffffffffffffffffffffffff16815260200190600101908083116108a7575b505050505081526020016003820160009054906101000a900460ff161515151581525050905060008160000151905060008260400151905060005b8151811015610adc57600061095a87838151811061094d5761094c612ce0565b5b6020026020010151610431565b905060058160ff161115610ac85780600660008660ff168152602001908152602001600020600085858151811061099457610993612ce0565b5b602002602001015173ffffffffffffffffffffffffffffffffffffffff1673ffffffffffffffffffffffffffffffffffffffff16815260200190815260200160002060006101000a81548160ff021916908360ff16021790555060006109fc8260ff16611d7e565b604051602001610a0c9190612d97565b6040516020818303038152906040529050600260009054906101000a900473ffffffffffffffffffffffffffffffffffffffff1673ffffffffffffffffffffffffffffffffffffffff1663d0def521858581518110610a6e57610a6d612ce0565b5b6020026020010151836040518363ffffffff1660e01b8152600401610a94929190612dc8565b600060405180830381600087803b158015610aae57600080fd5b505af1158015610ac2573d6000803e3d6000fd5b50505050505b508080610ad490612df8565b91505061092c565b50505050505050565b600460003373ffffffffffffffffffffffffffffffffffffffff1673ffffffffffffffffffffffffffffffffffffffff16815260200190815260200160002060009054906101000a900460ff16610b71576040517f08c379a0000000000000000000000000000000000000000000000000000000008152600401610b6890612b30565b60405180910390fd5b6000600360008573ffffffffffffffffffffffffffffffffffffffff1673ffffffffffffffffffffffffffffffffffffffff16815260200190815260200160002060000160019054906101000a900460ff1660ff1614610c06576040517f08c379a0000000000000000000000000000000000000000000000000000000008152600401610bfd90612eb2565b60405180910390fd5b60006040518060600160405280836003811115610c2657610c2561279e565b5b8152602001600160ff16815260200184815250905080600360008673ffffffffffffffffffffffffffffffffffffffff1673ffffffffffffffffffffffffffffffffffffffff16815260200190815260200160002060008201518160000160006101000a81548160ff02191690836003811115610ca657610ca561279e565b5b021790555060208201518160000160016101000a81548160ff021916908360ff1602179055506040820151816001019080519060200190610ce8929190611f62565b50905050660aa87bee538000600960008673ffffffffffffffffffffffffffffffffffffffff1673ffffffffffffffffffffffffffffffffffffffff168152602001908152602001600020819055507fe44eb12ca9b583003d0a62118cfbfc02b55ab04703c72f1e7868e7af3d2c04d381604051610d669190612f31565b60405180910390a150505050565b600460003373ffffffffffffffffffffffffffffffffffffffff1673ffffffffffffffffffffffffffffffffffffffff16815260200190815260200160002060009054906101000a900460ff16610e00576040517f08c379a0000000000000000000000000000000000000000000000000000000008152600401610df790612b30565b60405180910390fd5b6000835114158015610e1457506000825114155b610e53576040517f08c379a0000000000000000000000000000000000000000000000000000000008152600401610e4a90612fc5565b60405180910390fd5b60008160ff1611610e99576040517f08c379a0000000000000000000000000000000000000000000000000000000008152600401610e9090613057565b60405180910390fd5b600060405180606001604052808360ff1681526020018581526020018481525090506000610ec76000611d5a565b9050816005600083815260200190815260200160002060008201518160000160006101000a81548160ff021916908360ff1602179055506020820151816001019080519060200190610f1a929190611f62565b506040820151816002019080519060200190610f37929190611f62565b50905050610f456000611d68565b8085604051610f549190613077565b60405180910390207faccb74643848443c7b9b9fa77c302e6e06b06175a70e2a1dc7f0aa78d36e848460405160405180910390a35050505050565b600460003373ffffffffffffffffffffffffffffffffffffffff1673ffffffffffffffffffffffffffffffffffffffff16815260200190815260200160002060009054906101000a900460ff1661101b576040517f08c379a000000000000000000000000000000000000000000000000000000000815260040161101290612b30565b60405180910390fd5b806000600360008373ffffffffffffffffffffffffffffffffffffffff1673ffffffffffffffffffffffffffffffffffffffff16815260200190815260200160002060000160019054906101000a900460ff1660ff16036110b1576040517f08c379a00000000000000000000000000000000000000000000000000000000081526004016110a890613100565b60405180910390fd5b7f3b643b97ae8267c070e01af050ffe0186dee0ac1cf49c173043da2d106fb3159600360008473ffffffffffffffffffffffffffffffffffffffff1673ffffffffffffffffffffffffffffffffffffffff16815260200190815260200160002060405161111e919061327d565b60405180910390a1600360008373ffffffffffffffffffffffffffffffffffffffff1673ffffffffffffffffffffffffffffffffffffffff168152602001908152602001600020600080820160006101000a81549060ff02191690556000820160016101000a81549060ff021916905560018201600061119e9190611fe8565b50505050565b600060016111b26000611d5a565b6111bc91906129be565b905090565b600460003373ffffffffffffffffffffffffffffffffffffffff1673ffffffffffffffffffffffffffffffffffffffff16815260200190815260200160002060009054906101000a900460ff1661124d576040517f08c379a000000000000000000000000000000000000000000000000000000000815260040161124490612b30565b60405180910390fd5b6001600460008373ffffffffffffffffffffffffffffffffffffffff1673ffffffffffffffffffffffffffffffffffffffff16815260200190815260200160002060006101000a81548160ff0219169083151502179055507f172aea25cd6559308205e1029ad3d3c2e6316715ccad3c481a1da714228f8370816040516112d4919061329f565b60405180910390a150565b8060ff16600060076000838152602001908152602001600020600101540361133c576040517f08c379a000000000000000000000000000000000000000000000000000000000815260040161133390612bc2565b60405180910390fd5b6007600082815260200190815260200160002060030160009054906101000a900460ff16156113a0576040517f08c379a000000000000000000000000000000000000000000000000000000000815260040161139790612c54565b60405180910390fd5b336000600360008373ffffffffffffffffffffffffffffffffffffffff1673ffffffffffffffffffffffffffffffffffffffff16815260200190815260200160002060000160019054906101000a900460ff1660ff1603611436576040517f08c379a000000000000000000000000000000000000000000000000000000000815260040161142d90613100565b60405180910390fd5b42600760008560ff1681526020019081526020016000206001015411611491576040517f08c379a00000000000000000000000000000000000000000000000000000000081526004016114889061332c565b60405180910390fd5b600860008460ff16815260200190815260200160002060003373ffffffffffffffffffffffffffffffffffffffff1673ffffffffffffffffffffffffffffffffffffffff16815260200190815260200160002060009054906101000a900460ff1615611532576040517f08c379a0000000000000000000000000000000000000000000000000000000008152600401611529906133be565b60405180910390fd5b6601c6bf52634000341461157b576040517f08c379a000000000000000000000000000000000000000000000000000000000815260040161157290613450565b60405180910390fd5b6001600860008560ff16815260200190815260200160002060003373ffffffffffffffffffffffffffffffffffffffff1673ffffffffffffffffffffffffffffffffffffffff16815260200190815260200160002060006101000a81548160ff0219169083151502179055507f7af27f95e8160a59d0fd316b16a50514d1aa92881802e128fbe0fc33f15b5923600360003373ffffffffffffffffffffffffffffffffffffffff1673ffffffffffffffffffffffffffffffffffffffff168152602001908152602001600020604051611654919061327d565b60405180910390a1505050565b336000600360008373ffffffffffffffffffffffffffffffffffffffff1673ffffffffffffffffffffffffffffffffffffffff16815260200190815260200160002060000160019054906101000a900460ff1660ff16036116f7576040517f08c379a00000000000000000000000000000000000000000000000000000000081526004016116ee90613100565b60405180910390fd5b6000600960003373ffffffffffffffffffffffffffffffffffffffff1673ffffffffffffffffffffffffffffffffffffffff1681526020019081526020016000205403611779576040517f08c379a0000000000000000000000000000000000000000000000000000000008152600401611770906134e2565b60405180910390fd5b6000349050600061178a8233611ede565b90506000600960003373ffffffffffffffffffffffffffffffffffffffff1673ffffffffffffffffffffffffffffffffffffffff16815260200190815260200160002054905081816117dc91906129be565b600960003373ffffffffffffffffffffffffffffffffffffffff1673ffffffffffffffffffffffffffffffffffffffff168152602001908152602001600020819055508183111561187a573373ffffffffffffffffffffffffffffffffffffffff166108fc838561184d91906129be565b9081150290604051600060405180830381858888f19350505050158015611878573d6000803e3d6000fd5b505b50505050565b600260009054906101000a900473ffffffffffffffffffffffffffffffffffffffff1681565b60036020528060005260406000206000915090508060000160009054906101000a900460ff16908060000160019054906101000a900460ff16908060010180546118ef90612a21565b80601f016020809104026020016040519081016040528092919081815260200182805461191b90612a21565b80156119685780601f1061193d57610100808354040283529160200191611968565b820191906000526020600020905b81548152906001019060200180831161194b57829003601f168201915b5050505050905083565b60056020528060005260406000206000915090508060000160009054906101000a900460ff16908060010180546119a890612a21565b80601f01602080910402602001604051908101604052809291908181526020018280546119d490612a21565b8015611a215780601f106119f657610100808354040283529160200191611a21565b820191906000526020600020905b815481529060010190602001808311611a0457829003601f168201915b505050505090806002018054611a3690612a21565b80601f0160208091040260200160405190810160405280929190818152602001828054611a6290612a21565b8015611aaf5780601f10611a8457610100808354040283529160200191611aaf565b820191906000526020600020905b815481529060010190602001808311611a9257829003601f168201915b5050505050905083565b60046020528060005260406000206000915054906101000a900460ff1681565b600460003373ffffffffffffffffffffffffffffffffffffffff1673ffffffffffffffffffffffffffffffffffffffff16815260200190815260200160002060009054906101000a900460ff16611b65576040517f08c379a0000000000000000000000000000000000000000000000000000000008152600401611b5c90612b30565b60405180910390fd5b8160ff166000600560008381526020019081526020016000206001018054611b8c90612a21565b905003611bce576040517f08c379a0000000000000000000000000000000000000000000000000000000008152600401611bc590612ac4565b60405180910390fd5b42821115611c11576040517f08c379a0000000000000000000000000000000000000000000000000000000008152600401611c0890613574565b60405180910390fd5b6060600060405180608001604052808660ff1681526020018581526020018381526020016000151581525090506000611c4a6001611d5a565b9050816007600083815260200190815260200160002060008201518160000160006101000a81548160ff021916908360ff160217905550602082015181600101556040820151816002019080519060200190611ca7929190612028565b5060608201518160030160006101000a81548160ff021916908315150217905550905050611cd56001611d68565b7f3574302e10b92446c87a9581be42cd1eda0c29c4870c6b2c9dadd419b3072b478686604051611d06929190613594565b60405180910390a1505050505050565b60076020528060005260406000206000915090508060000160009054906101000a900460ff16908060010154908060030160009054906101000a900460ff16905083565b600081600001549050919050565b6001816000016000828254019250508190555050565b606060008203611dc5576040518060400160405280600181526020017f30000000000000000000000000000000000000000000000000000000000000008152509050611ed9565b600082905060005b60008214611df7578080611de090612df8565b915050600a82611df091906135ec565b9150611dcd565b60008167ffffffffffffffff811115611e1357611e12612326565b5b6040519080825280601f01601f191660200182016040528015611e455781602001600182028036833780820191505090505b5090505b60008514611ed257600182611e5e91906129be565b9150600a85611e6d919061361d565b6030611e79919061364e565b60f81b818381518110611e8f57611e8e612ce0565b5b60200101907effffffffffffffffffffffffffffffffffffffffffffffffffffffffffffff1916908160001a905350600a85611ecb91906135ec565b9450611e49565b8093505050505b919050565b600080600960008473ffffffffffffffffffffffffffffffffffffffff1673ffffffffffffffffffffffffffffffffffffffff168152602001908152602001600020549050808411611f335783915050611f38565b809150505b92915050565b6040518060600160405280600060ff16815260200160608152602001606081525090565b828054611f6e90612a21565b90600052602060002090601f016020900481019282611f905760008555611fd7565b82601f10611fa957805160ff1916838001178555611fd7565b82800160010185558215611fd7579182015b82811115611fd6578251825591602001919060010190611fbb565b5b509050611fe491906120b2565b5090565b508054611ff490612a21565b6000825580601f106120065750612025565b601f01602090049060005260206000209081019061202491906120b2565b5b50565b8280548282559060005260206000209081019282156120a1579160200282015b828111156120a05782518260006101000a81548173ffffffffffffffffffffffffffffffffffffffff021916908373ffffffffffffffffffffffffffffffffffffffff16021790555091602001919060010190612048565b5b5090506120ae91906120b2565b5090565b5b808211156120cb5760008160009055506001016120b3565b5090565b6000819050919050565b6120e2816120cf565b82525050565b60006020820190506120fd60008301846120d9565b92915050565b6000604051905090565b600080fd5b600080fd5b600060ff82169050919050565b61212d81612117565b811461213857600080fd5b50565b60008135905061214a81612124565b92915050565b6000602082840312156121665761216561210d565b5b60006121748482850161213b565b91505092915050565b61218681612117565b82525050565b60006020820190506121a1600083018461217d565b92915050565b6121b0816120cf565b81146121bb57600080fd5b50565b6000813590506121cd816121a7565b92915050565b6000602082840312156121e9576121e861210d565b5b60006121f7848285016121be565b91505092915050565b61220981612117565b82525050565b600081519050919050565b600082825260208201905092915050565b60005b8381101561224957808201518184015260208101905061222e565b83811115612258576000848401525b50505050565b6000601f19601f8301169050919050565b600061227a8261220f565b612284818561221a565b935061229481856020860161222b565b61229d8161225e565b840191505092915050565b60006060830160008301516122c06000860182612200565b50602083015184820360208601526122d8828261226f565b915050604083015184820360408601526122f2828261226f565b9150508091505092915050565b6000602082019050818103600083015261231981846122a8565b905092915050565b600080fd5b7f4e487b7100000000000000000000000000000000000000000000000000000000600052604160045260246000fd5b61235e8261225e565b810181811067ffffffffffffffff8211171561237d5761237c612326565b5b80604052505050565b6000612390612103565b905061239c8282612355565b919050565b600067ffffffffffffffff8211156123bc576123bb612326565b5b602082029050602081019050919050565b600080fd5b60006123e56123e0846123a1565b612386565b90508083825260208201905060208402830185811115612408576124076123cd565b5b835b81811015612431578061241d888261213b565b84526020840193505060208101905061240a565b5050509392505050565b600082601f8301126124505761244f612321565b5b81356124608482602086016123d2565b91505092915050565b600080604083850312156124805761247f61210d565b5b600061248e8582860161213b565b925050602083013567ffffffffffffffff8111156124af576124ae612112565b5b6124bb8582860161243b565b9150509250929050565b600073ffffffffffffffffffffffffffffffffffffffff82169050919050565b60006124f0826124c5565b9050919050565b612500816124e5565b811461250b57600080fd5b50565b60008135905061251d816124f7565b92915050565b600080fd5b600067ffffffffffffffff82111561254357612542612326565b5b61254c8261225e565b9050602081019050919050565b82818337600083830152505050565b600061257b61257684612528565b612386565b90508281526020810184848401111561259757612596612523565b5b6125a2848285612559565b509392505050565b600082601f8301126125bf576125be612321565b5b81356125cf848260208601612568565b91505092915050565b600481106125e557600080fd5b50565b6000813590506125f7816125d8565b92915050565b6000806000606084860312156126165761261561210d565b5b60006126248682870161250e565b935050602084013567ffffffffffffffff81111561264557612644612112565b5b612651868287016125aa565b9250506040612662868287016125e8565b9150509250925092565b6000806000606084860312156126855761268461210d565b5b600084013567ffffffffffffffff8111156126a3576126a2612112565b5b6126af868287016125aa565b935050602084013567ffffffffffffffff8111156126d0576126cf612112565b5b6126dc868287016125aa565b92505060406126ed8682870161213b565b9150509250925092565b60006020828403121561270d5761270c61210d565b5b600061271b8482850161250e565b91505092915050565b6000819050919050565b600061274961274461273f846124c5565b612724565b6124c5565b9050919050565b600061275b8261272e565b9050919050565b600061276d82612750565b9050919050565b61277d81612762565b82525050565b60006020820190506127986000830184612774565b92915050565b7f4e487b7100000000000000000000000000000000000000000000000000000000600052602160045260246000fd5b600481106127de576127dd61279e565b5b50565b60008190506127ef826127cd565b919050565b60006127ff826127e1565b9050919050565b61280f816127f4565b82525050565b600082825260208201905092915050565b60006128318261220f565b61283b8185612815565b935061284b81856020860161222b565b6128548161225e565b840191505092915050565b60006060820190506128746000830186612806565b612881602083018561217d565b81810360408301526128938184612826565b9050949350505050565b60006060820190506128b2600083018661217d565b81810360208301526128c48185612826565b905081810360408301526128d88184612826565b9050949350505050565b60008115159050919050565b6128f7816128e2565b82525050565b600060208201905061291260008301846128ee565b92915050565b6000806040838503121561292f5761292e61210d565b5b600061293d8582860161213b565b925050602061294e858286016121be565b9150509250929050565b600060608201905061296d600083018661217d565b61297a60208301856120d9565b61298760408301846128ee565b949350505050565b7f4e487b7100000000000000000000000000000000000000000000000000000000600052601160045260246000fd5b60006129c9826120cf565b91506129d4836120cf565b9250828210156129e7576129e661298f565b5b828203905092915050565b7f4e487b7100000000000000000000000000000000000000000000000000000000600052602260045260246000fd5b60006002820490506001821680612a3957607f821691505b602082108103612a4c57612a4b6129f2565b5b50919050565b7f76616c6964616e507265646d65743a20507265646d65742073612074696d204960008201527f442d656d206e6520706f73746f6a6920696c69206a65206f62726973616e2100602082015250565b6000612aae603f83612815565b9150612ab982612a52565b604082019050919050565b60006020820190508181036000830152612add81612aa1565b9050919050565b7f73616d6f50726f6665736f723a204e697374652070726f6665736f7221000000600082015250565b6000612b1a601d83612815565b9150612b2582612ae4565b602082019050919050565b60006020820190508181036000830152612b4981612b0d565b9050919050565b7f76616c6964616e49737069743a2049737069742073612074696d2049442d656d60008201527f206e6520706f73746f6a69210000000000000000000000000000000000000000602082015250565b6000612bac602c83612815565b9150612bb782612b50565b604082019050919050565b60006020820190508181036000830152612bdb81612b9f565b9050919050565b7f76616c6964616e49737069743a2049737069742073612074696d2049442d656d60008201527f206a6520766563206f64727a616e210000000000000000000000000000000000602082015250565b6000612c3e602f83612815565b9150612c4982612be2565b604082019050919050565b60006020820190508181036000830152612c6d81612c31565b9050919050565b7f6f64727a6949737069743a204e65646f766f6c6a6e6f206f63656e6121000000600082015250565b6000612caa601d83612815565b9150612cb582612c74565b602082019050919050565b60006020820190508181036000830152612cd981612c9d565b9050919050565b7f4e487b7100000000000000000000000000000000000000000000000000000000600052603260045260246000fd5b600081905092915050565b7f53747564656e7420706f6c6f7a696f207361206f63656e6f6d00000000000000600082015250565b6000612d50601983612d0f565b9150612d5b82612d1a565b601982019050919050565b6000612d718261220f565b612d7b8185612d0f565b9350612d8b81856020860161222b565b80840191505092915050565b6000612da282612d43565b9150612dae8284612d66565b915081905092915050565b612dc2816124e5565b82525050565b6000604082019050612ddd6000830185612db9565b8181036020830152612def8184612826565b90509392505050565b6000612e03826120cf565b91507fffffffffffffffffffffffffffffffffffffffffffffffffffffffffffffffff8203612e3557612e3461298f565b5b600182019050919050565b7f757069736953747564656e74613a2053747564656e74206a652076656320757060008201527f6973616e21000000000000000000000000000000000000000000000000000000602082015250565b6000612e9c602583612815565b9150612ea782612e40565b604082019050919050565b60006020820190508181036000830152612ecb81612e8f565b9050919050565b612edb816127f4565b82525050565b6000606083016000830151612ef96000860182612ed2565b506020830151612f0c6020860182612200565b5060408301518482036040860152612f24828261226f565b9150508091505092915050565b60006020820190508181036000830152612f4b8184612ee1565b905092915050565b7f646f64616a507265646d65743a20496d656e6120707265646d6574612069207060008201527f726f6665736f7261206e65206d6f67752062697469207072617a6e6921000000602082015250565b6000612faf603d83612815565b9150612fba82612f53565b604082019050919050565b60006020820190508181036000830152612fde81612fa2565b9050919050565b7f646f64616a507265646d65743a2045535042206d6f726120626974692076656360008201527f69206f6420302100000000000000000000000000000000000000000000000000602082015250565b6000613041602783612815565b915061304c82612fe5565b604082019050919050565b6000602082019050818103600083015261307081613034565b9050919050565b60006130838284612d66565b915081905092915050565b7f76616c6964616e53747564656e743a2053747564656e74206e696a652075706960008201527f73616e20696c69206a6520766563206973706973616e21000000000000000000602082015250565b60006130ea603783612815565b91506130f58261308e565b604082019050919050565b60006020820190508181036000830152613119816130dd565b9050919050565b60008160001c9050919050565b600060ff82169050919050565b600061314d61314883613120565b61312d565b9050919050565b60008160081c9050919050565b600060ff82169050919050565b600061318161317c83613154565b613161565b9050919050565b60008190508160005260206000209050919050565b600081546131aa81612a21565b6131b4818661221a565b945060018216600081146131cf57600181146131e157613214565b60ff1983168652602086019350613214565b6131ea85613188565b60005b8381101561320c578154818901526001820191506020810190506131ed565b808801955050505b50505092915050565b60006060830160008084015490506132348161313a565b6132416000870182612ed2565b5061324b8161316e565b6132586020870182612200565b5060018401858303604087015261326f838261319d565b925050819250505092915050565b60006020820190508181036000830152613297818461321d565b905092915050565b60006020820190506132b46000830184612db9565b92915050565b7f76616c6964616e49737069743a20526f6b207a61207072696a6176752069737060008201527f697461206a652070726f73616f21000000000000000000000000000000000000602082015250565b6000613316602e83612815565b9150613321826132ba565b604082019050919050565b6000602082019050818103600083015261334581613309565b9050919050565b7f7072696a61766949737069743a2053747564656e74206a65207665632070726960008201527f6a6176696f206973706974210000000000000000000000000000000000000000602082015250565b60006133a8602c83612815565b91506133b38261334c565b604082019050919050565b600060208201905081810360008301526133d78161339b565b9050919050565b7f7072696a61766949737069743a205072696a617661207a61206973706974206b60008201527f6f73746120302e30303035206574682100000000000000000000000000000000602082015250565b600061343a603083612815565b9150613445826133de565b604082019050919050565b600060208201905081810360008301526134698161342d565b9050919050565b7f706c617469536b6f6c6172696e753a20536b6f6c6172696e612076656320706c60008201527f6163656e61210000000000000000000000000000000000000000000000000000602082015250565b60006134cc602683612815565b91506134d782613470565b604082019050919050565b600060208201905081810360008301526134fb816134bf565b9050919050565b7f646f64616a49737069743a204973706974206e65206d6f7a652064612073652060008201527f6f64727a6920752070726f736c6f737469210000000000000000000000000000602082015250565b600061355e603283612815565b915061356982613502565b604082019050919050565b6000602082019050818103600083015261358d81613551565b9050919050565b60006040820190506135a9600083018561217d565b6135b660208301846120d9565b9392505050565b7f4e487b7100000000000000000000000000000000000000000000000000000000600052601260045260246000fd5b60006135f7826120cf565b9150613602836120cf565b925082613612576136116135bd565b5b828204905092915050565b6000613628826120cf565b9150613633836120cf565b925082613643576136426135bd565b5b828206905092915050565b6000613659826120cf565b9150613664836120cf565b9250827fffffffffffffffffffffffffffffffffffffffffffffffffffffffffffffffff038211156136995761369861298f565b5b82820190509291505056fea2646970667358221220de227556b5ccb64808ae29d1f02b9a0c6e4e691657a3d5550ea44068a369818364736f6c634300080d0033",
  "immutableReferences": {},
  "source": "// SPDX-License-Identifier: MIT\r\npragma solidity ^0.8.0;\r\npragma experimental ABIEncoderV2;\r\n\r\nimport \"./interfaces/IRAFSystem.sol\";\r\nimport \"./RAFOceneNFT.sol\";\r\nimport \"@openzeppelin/contracts/utils/Counters.sol\";\r\nimport \"@openzeppelin/contracts/utils/Strings.sol\";\r\n\r\ncontract RAFSystem is IRAFSystem {\r\n    using Counters for Counters.Counter;\r\n    Counters.Counter private _predmetIDCounter;\r\n    Counters.Counter private _ispitIDCounter;\r\n\r\n    RAFOceneNFT public ocena;\r\n\r\n    mapping(address => Student) public studenti;\r\n    mapping(address => bool) public profesori;\r\n\r\n    mapping(uint => Predmet) public predmeti;\r\n    mapping(uint => mapping(address => uint8)) polozeno;  // PREDMET > (STUDENT > OCENA)\r\n\r\n    mapping(uint => Ispit) public ispiti;\r\n    mapping(uint => mapping(address => bool)) prijavljeni; //ISPIT > (STUDENT > PRIJAVLJEN)\r\n    mapping(address => uint) skolarina;\r\n\r\n\r\n    modifier samoProfesor {\r\n        require(profesori[msg.sender], \"samoProfesor: Niste profesor!\");\r\n        _;\r\n    }\r\n\r\n    modifier validanStudent(address _student) {\r\n        require(studenti[_student].godinaStudiranja != 0, \"validanStudent: Student nije upisan ili je vec ispisan!\");\r\n        _;\r\n    }\r\n\r\n    modifier validanPredmet(uint256 _predmetID) {\r\n        require(bytes(predmeti[_predmetID].nazivPredmeta).length != 0, \"validanPredmet: Predmet sa tim ID-em ne postoji ili je obrisan!\");\r\n        _;\r\n    }\r\n\r\n    modifier validanIspit(uint256 _ispitID) {\r\n        require(ispiti[_ispitID].vremeOdrzavanja != 0, \"validanIspit: Ispit sa tim ID-em ne postoji!\");\r\n        require(!ispiti[_ispitID].odrzan, \"validanIspit: Ispit sa tim ID-em je vec odrzan!\");\r\n        _;\r\n    }\r\n\r\n    constructor(RAFOceneNFT _ocena) {\r\n        profesori[msg.sender] = true;\r\n        ocena = _ocena;\r\n\r\n        dodajPredmet(\"DS & Algorithms\" , \"John Doe\", 8);\r\n        dodajPredmet(\"Math 1\" , \"Jane Doe\", 8);\r\n        dodajPredmet(\"Math 2\" , \"Jane Doe\", 8);\r\n        dodajPredmet(\"Introduction to programming\" , \"Vitalik Buterin\", 8);\r\n    }\r\n\r\n    function upisiStudenta(address _noviStudent, string memory _indeks, Smer _smer) override public samoProfesor {\r\n        require(studenti[_noviStudent].godinaStudiranja == 0, \"upisiStudenta: Student je vec upisan!\");\r\n        Student memory _novi = Student(_smer, 1, _indeks);\r\n\r\n        studenti[_noviStudent] = _novi;\r\n        skolarina[_noviStudent] = 3 * (10 ** 15);\r\n        emit UpisanStudent(_novi);\r\n    }\r\n\r\n    function ispisiStudenta(address _student) override public samoProfesor validanStudent(_student) {\r\n        emit IspisanStudent(studenti[_student]);\r\n        delete studenti[_student];\r\n    }\r\n\r\n    function izracunajOcenu(uint8 _poeni) view override public returns (uint8) {\r\n\r\n        if (_poeni <= 50) {// student nije polozio predmet\r\n            return 5;\r\n        } else if (_poeni <= 60) {\r\n            return 6;\r\n        } else if (_poeni <= 70) {\r\n            return 7;\r\n        } else if (_poeni <= 80) {\r\n            return 8;\r\n        } else if (_poeni <= 90) {\r\n            return 9;\r\n        } else {\r\n            return 10;\r\n        }\r\n    }\r\n\r\n    function getLatestPredmetID() view public returns (uint256) {\r\n        return Counters.current(_predmetIDCounter) - 1;\r\n    }\r\n\r\n    function getLatestIspitID() view public returns(uint){\r\n        return Counters.current(_ispitIDCounter) - 1;\r\n    }\r\n\r\n    function getPredmet(uint _predmetID) public override view validanPredmet(_predmetID) returns (Predmet memory)  {\r\n        return predmeti[_predmetID];\r\n    }\r\n\r\n    function dodajProfesora(address _noviProfesor) public override samoProfesor {\r\n        profesori[_noviProfesor] = true;\r\n        emit DodatProfesor(_noviProfesor);\r\n    }\r\n\r\n    function dodajPredmet(string memory _nazivPredmeta, string memory _imeProfesora, uint8 _espb) public override samoProfesor {\r\n        require(bytes(_nazivPredmeta).length != 0 && bytes(_imeProfesora).length != 0, \"dodajPredmet: Imena predmeta i profesora ne mogu biti prazni!\");\r\n        require(_espb > 0, \"dodajPredmet: ESPB mora biti veci od 0!\");\r\n\r\n        Predmet memory _noviPredmet = Predmet(_espb, _nazivPredmeta, _imeProfesora);\r\n        uint256 _predmetID = Counters.current(_predmetIDCounter);\r\n        predmeti[_predmetID] = _noviPredmet;\r\n\r\n        Counters.increment(_predmetIDCounter);\r\n        emit DodatPredmet(_nazivPredmeta, _predmetID);\r\n    }\r\n\r\n    function dodajIspit(uint8 _predmetID, uint _vremeOdrzavanja) public override samoProfesor validanPredmet(_predmetID) {\r\n        require(_vremeOdrzavanja <= block.timestamp, \"dodajIspit: Ispit ne moze da se odrzi u proslosti!\");\r\n        address[] memory _studenti;\r\n        Ispit memory _noviIspit = Ispit(_predmetID, _vremeOdrzavanja, _studenti, false);\r\n\r\n        // _noviIspit.predmetID = _predmetID;\r\n        // _noviIspit.vremeOdrzavanja = _vremeOdrzavanja;\r\n        // _noviIspit.odrzan = false;\r\n\r\n        uint _ispitID = Counters.current(_ispitIDCounter);\r\n        ispiti[_ispitID] = _noviIspit;\r\n\r\n        Counters.increment(_ispitIDCounter);\r\n        emit DodatIspit(_predmetID, _vremeOdrzavanja);\r\n    }\r\n\r\n    function prijaviIspit(uint8 _ispitID) public override payable validanIspit(_ispitID) validanStudent(msg.sender) {\r\n        require(ispiti[_ispitID].vremeOdrzavanja > block.timestamp, \"validanIspit: Rok za prijavu ispita je prosao!\");\r\n        require(!prijavljeni[_ispitID][msg.sender], \"prijaviIspit: Student je vec prijavio ispit!\");\r\n        require(msg.value == 5 * (10**14), \"prijaviIspit: Prijava za ispit kosta 0.0005 eth!\");\r\n\r\n        prijavljeni[_ispitID][msg.sender] = true;\r\n\r\n        emit PrijavljenIspit(studenti[msg.sender]);\r\n    }\r\n\r\n    function odrziIspit(uint8 _ispitID, uint8[] memory ocene) public override samoProfesor validanIspit(_ispitID) {\r\n        require(ocene.length == ispiti[_ispitID].studenti.length, \"odrziIspit: Nedovoljno ocena!\");\r\n        Ispit memory ispit = ispiti[_ispitID];\r\n        uint8 _predmetID = ispit.predmetID;\r\n        address[] memory studenti = ispit.studenti;\r\n\r\n        for(uint i = 0; i < studenti.length; i++){\r\n            uint8 _ocena = izracunajOcenu(ocene[i]);\r\n            if(_ocena > 5){\r\n                polozeno[_predmetID][studenti[i]] = _ocena;\r\n                string memory _uri = string(abi.encodePacked(\"Student polozio sa ocenom\", Strings.toString(_ocena)));\r\n                ocena.mint(studenti[i], _uri);\r\n            }\r\n        }\r\n    }\r\n\r\n    function platiSkolarinu() public override payable validanStudent(msg.sender){\r\n        require(skolarina[msg.sender] != 0, \"platiSkolarinu: Skolarina vec placena!\");\r\n\r\n        uint _uplata = msg.value;\r\n        uint _maksimalno = maksimalnaUplata(_uplata, msg.sender);\r\n        uint _dug = skolarina[msg.sender];\r\n\r\n        skolarina[msg.sender] = _dug - _maksimalno;\r\n\r\n        if(_uplata > _maksimalno){\r\n            payable(msg.sender).transfer(_uplata - _maksimalno);\r\n        }\r\n    }\r\n\r\n    function maksimalnaUplata(uint _uplata, address _student) internal view returns(uint){\r\n        uint _max = skolarina[_student];\r\n\r\n        if(_uplata <= _max){\r\n            return _uplata;\r\n        }\r\n\r\n        return _max;\r\n    }\r\n\r\n}",
  "sourcePath": "D:\\rafsystem\\smart-contracts\\contracts\\RAFSystem.sol",
  "compiler": {
    "name": "solc",
    "version": "0.8.13+commit.abaa5c0e.Emscripten.clang"
  },
  "schemaVersion": "3.4.4",
  "updatedAt": "2022-05-08T16:12:16.955Z",
  "networkType": "ethereum",
  "devdoc": {
    "kind": "dev",
    "methods": {},
    "version": 1
  },
  "userdoc": {
    "kind": "user",
    "methods": {},
    "version": 1
  }
}